:020000040800F2
:10000000300C0020BD010008C5010008C701000830
:10001000C9010008CB010008CD0100080000000064
:10002000000000000000000000000000CF010008F8
:10003000D101000800000000D3010008D50100082C
:10004000D7010008D7010008D7010008D701000830
:10005000D7010008D7010008D7010008D701000820
:10006000D7010008D7010008D7010008D701000810
:10007000950200080D030008D701000811030008CD
:10008000D7010008D7010008D701000800000000D0
:10009000000000000000000000000000D701000880
:1000A000D7010008D7010008D7010008D7010008D0
:1000B000D7010008D70100080D060008D701000885
:1000C000D7010008D7010008D7010008D7010008B0
:1000D000D7010008D7010008D7010008D7010008A0
:1000E00045030008D7010008D70100080000000000
:1000F0000000000000000000000000000000000000
:1001000000000000000000000000000000000000EF
:100110000000000000000000D7010008D70100081F
:1001200000F002F800F03AF80AA090E8000C8244CF
:100130008344AAF10107DA4501D100F02FF8AFF2AC
:10014000090EBAE80F0013F0010F18BFFB1A43F0B5
:10015000010318472446000044460000103A24BF1B
:1001600078C878C1FAD8520724BF30C830C144BF1C
:1001700004680C607047000000230024002500265E
:10018000103A28BF78C1FBD8520728BF30C148BFFA
:100190000B6070471FB51FBD10B510BD00F044F8CF
:1001A0001146FFF7F7FF00F013FF00F062F803B409
:1001B000FFF7F2FF03BC00F065F800000948804734
:1001C00009480047FEE7FEE7FEE7FEE7FEE7FEE739
:1001D000FEE7FEE7FEE7FEE704480549054A064B51
:1001E00070470000AD04000821010008300600201F
:1001F000300C002030080020300800207047704785
:10020000704710B500F008F8006810BD10B504463E
:1002100000F002F8046010BD00487047CC050020D3
:1002200000487047CC0500207546FFF7F9FFAE4641
:1002300005006946534620F00700854618B020B5F2
:10024000FFF7CAFFBDE820404FF000064FF000075F
:100250004FF000084FF0000B21F00701AC46ACE86E
:10026000C009ACE8C009ACE8C009ACE8C0098D46DB
:10027000704710B50446AFF300802046BDE810403B
:10028000FFF795BF01491820ABBEFEE7260002002C
:10029000704700001848416841F01001416017495B
:1002A0000A68B2F5C83F02D0521C0A607047026B60
:1002B00022F001020263C26922F00102C261104809
:1002C000026842F0100202600E48026842F4805256
:1002D00002600B48001D026842F480720260002038
:1002E00008600948818821F002018180818821F01D
:1002F00001018180704700000000024004000020DE
:1003000010080140100C014000300140704700000F
:100310000A48416841F480314160816D21F001015A
:1003200081654FEAF040018821F001010180044815
:10033000016841F4807101607047000000000240D4
:100340000C0C01402DE9F05F2A48016841F48061FE
:100350000160294C4FF4A07804F1200604F118073D
:10036000DFF898B03FE0002030603860DFF8909010
:100370000546A9F1500A00BF00F068FE608049F808
:100380002500404502D340F23F106080306861880C
:100390000844306000F096FEA0804AF82500EF285F
:1003A00001D9EF2161803968084438606D1CADB215
:1003B0000F2DE1D331680F20B1FBF0F17160396886
:1003C000B1FBF0F078607068404510D27868EF2893
:1003D0000DD8786881B2706880B201F079F842F285
:1003E000107000F0C7FADBF800004005BBD5BDE88F
:1003F000F09F000014040140100000200808014094
:10040000BC0000200CB50021264801910091026833
:1004100042F4803202604FF4A063026802F40032BA
:100420000092019A521C0192009A12B9019A9A42C2
:10043000F3D10268920333D5012100911A490A6869
:1004400042F010020A600A6822F003020A600A6899
:1004500042F002020A6041684160416841604168BF
:1004600041F480614160416821F47C114160416840
:1004700041F4E8114160016841F080710160016858
:100480008901FCD5416821F003014160416841F0D8
:10049000020141604168C1F381010229FAD10CBD1A
:1004A00000910CBD00100240002002400F4810B522
:1004B000016841F00101016041680D4A114041604D
:1004C00001680C4A11400160016821F4802101603B
:1004D000416821F4FE0141604FF41F018160FFF784
:1004E00091FF05494FF00060086010BD0010024008
:1004F0000000FFF8FFFFF6FE08ED00E02DE9F041F7
:1005000007461C4616460D462A2000F047F8380AD2
:1005100000F054F8384600F051F8300A00F04EF878
:10052000304600F04BF82B2000F038F8280A00F095
:1005300045F8E8B200F042F8200A00F03FF8E0B2D7
:1005400000F03CF8322000F015FABDE8F0412C2014
:1005500000F024B82DE9F0410746362000F01EF8DF
:100560000D4CF0264FF4A07567B1012F0CD0022F6F
:100570000CD0032F04D1E82000F020F825806680FD
:10058000BDE8F081482002E02820F5E7882000F04F
:1005900015F826806580F3E708000020064910B5AD
:1005A0000A6842F480720A6000F044FDBDE8104021
:1005B000012000F0DFB9000014080140064910B521
:1005C0000A6842F480720A6000F034FDBDE8104011
:1005D000022000F0CFB90000100801400A4810B511
:1005E000016841F4007101604FF47A74204600F014
:1005F000C1F90549091F086840F4007008602046E9
:10060000BDE8104000F0B6B9140801407047490039
:1006100050EAC12018BF04204A0D18BF40F0010065
:1006200040F2FF72B2EB515F08BF40F002000128B8
:1006300008BF052070472DE9F0414F1E00EBC701B0
:100640000446D1E9000115461E4637F006020DD0DA
:100650002A46334601F0DCFB7F1E04EBC703D3E9D7
:10066000002301F041F937F00602F1D1022F25D025
:10067000042F13D0062F18BFBDE8F0812A46334659
:1006800001F0C6FBD4E90A2301F02EF92A463346CD
:1006900001F0BEFBD4E9082301F026F92A463346CF
:1006A00001F0B6FBD4E9062301F01EF92A463346D1
:1006B00001F0AEFBD4E9042301F016F92A463346D3
:1006C00001F0A6FBD4E9022301F00EF92A463346D5
:1006D00001F09EFBD4E90023BDE8F04101F004B92C
:1006E000012201F04DBF002213461046114601F0D1
:1006F000B7B90000024A0020110701F041BF000015
:1007000001FDFFFF2DE9F04D8D4F21F0004A86B02D
:1007100005460C46BA452ADBAAEB070028430AD057
:100720008848824501DC1AD1CDB106B02846BDE823
:10073000F04DFFF7D5BF844A844B284601F068FB93
:1007400007460E46824A834B2846214601F060FB4D
:1007500006B03A463346BDE8F04D01F0C5B8012079
:10076000FFF754FD06B0BDE8F04DFFF7BCBF7A4877
:10077000824542DABAF1795F0BDA2846FFF747FF84
:10078000042808BFFFF7B6FF284606B02146BDE89B
:10079000F08D2A460B46104601F03AFB834602468E
:1007A0006E480E460B4606217844FFF744FF5A4632
:1007B000334601F02DFB804669488A465A46334647
:1007C00004217844FFF737FF5A46334601F020FBF7
:1007D00000223B4601F088F802460B46404651464F
:1007E00001F03EF92A46234601F012FB06B02A46E4
:1007F0002346BDE8F04D01F077B8284624F00041CB
:1008000000223D463B4601F037FC4FF0FF3201F03D
:10081000B7FE0646024653480F460B46062178446B
:10082000FFF709FF32463B4601F0F2FACDE900013D
:100830004D4832463B4604217844FFF7FCFE3246E1
:100840003B4601F0E5FA00222B4601F04DF88346C5
:1008500002913046394600F0A1FC804643480D46DF
:10086000504517DCDDE900015A46029B01F0F8F81B
:1008700042462B4601F0CCFA42462B4601F034F8B2
:10088000012201F07DFE304A304B01F0E7FC304A96
:10089000304B4CE04FF0000A52460B46404601F008
:1008A00023F8CDE9031052462B461046194601F0B5
:1008B000AFFA32463B4601F0DFFBDDE9033201F0DF
:1008C000CFF806460F46DDE900015A46029B01F0CB
:1008D000C7F88346009101223046394601F050FEA8
:1008E000194A1A4B01F0C8FB06460F460122404642
:1008F000294601F045FE5A46009B01F089FA32462E
:100900003B4601F0ABFC06460F4601225046294605
:1009100001F036FE0E4DDFF858802A46434601F0BE
:10092000ABFB32463B4601F0A7FB2A46434601F0AB
:10093000A3FB002CD8BF81F0004106B0BDE8F08DCC
:100940000000F03F0000F07F075C143326A6913CC6
:10095000182D4454FB21F93F0000E03F7C3F00008C
:10096000923F0000063F00001C3F00003333EF3F82
:10097000FB21E93F00EBC000C000401EFDD27047E4
:10098000F0B50021DFF848C03E27124D0C461A266C
:10099000CCF80410182203465FEA032E01D56F54E9
:1009A00000E06E545B00491C521EF5D1641CA4B2D9
:1009B000322CEFD3CCF80830CCE900215A2068540F
:1009C000491C521C022AFAD9CCE90021F0BD0000D2
:1009D000600000201801002070B5064628480D462A
:1009E0001446016841F4805101600021EF2340F278
:1009F0003F120846FFF782FD2248016841F48071EA
:100A00000160001D016841F010010160032000F049
:100A10003DF8002000F03AF8002000F037F8002000
:100A200000F034F8184B186B20F001001863186BB5
:100A30006FF30E0018639C63DD635E63186B41F215
:100A4000300108431863D86920F00100D861D869E3
:100A50006FF30E00D8615C629D621E62D86940F03F
:100A60002200D8614FF0E0219814C1F80001D86944
:100A700040F00100D861186B40F00100186370BDB0
:100A8000140C0140100801400000024004490A898A
:100A90009207FCD5888108898007FCD57047000043
:100AA0000030014010B500F025F84FF47A70FFF7E0
:100AB00061FF0F48016821F470210160016841F471
:100AC000803101600A481430016841F01001016072
:100AD000AB20FFF7DBFF06481030016841F0100142
:100AE0000160BDE8104042F21070FFF743BF000004
:100AF000000801401748816941F004018161816962
:100B000041F480518161416941F001014161124824
:100B1000018821F04001018010490A68C2F31302E4
:100B20000A600A680E4B1A430A600021018002889D
:100B300042F4437202808180818841F00201818009
:100B4000818841F001018180018841F040010180EC
:100B500070470000001002400030014000080140D2
:100B60000000B0B42DE9F84F4B4CDDE90A23A0F5A5
:100B70009671DFF81C91DFF81CA1E1260027A51F64
:100B80003C290CD80020454901F068FB4A465346F1
:100B900001F03EF9C5E912012670677040E0A0F14E
:100BA000F001DFF8FC803C2912D800203D4901F01B
:100BB00055FB4A46534601F02BF90022434601F00B
:100BC0005BFAC5E9120101F0A3F82070677011E02B
:100BD000A0F1B4013C290FD80020334901F03EFBBD
:100BE0004A46534601F014F9C5E91201277001F095
:100BF0008FF86070A67040E0A0F178013C2913D80E
:100C000000202A4901F02AFB4A46534601F000F928
:100C10000022434601F030FAC5E9120127706670E0
:100C200001F076F8A07028E0A0F13C013C290ED834
:100C300000201F4901F012FB4A46534601F0E8F834
:100C4000C5E9120101F064F82070667014E0401EDE
:100C50003B2812D80020174901F000FB4A465346B2
:100C600001F0D6F80022434601F006FAC5E9120168
:100C7000267001F04DF86070A770D5F8060000905E
:100C8000BDF800009DF8021040EA0140BDE8F88F71
:100C9000CDCCCCCCCCCC0C401600002000707640E3
:100CA00000206C4000C0724000006E400080664032
:100CB00000005E4000004E405348016841F00101D1
:100CC000016001688907FCD5416821F0030141609A
:100CD000416811F00C0FFBD141684FF6F07291435F
:100CE0004160016821F08071016001688901FCD4D4
:100CF000416821F470114160416821F48031416004
:100D0000416821F400314160416821F0E0614160B7
:100D1000016821F48031016001688903FCD4416AD3
:100D200041F080714162C169384A1140C1618169F5
:100D3000374A1140816100214161826942F0040219
:100D40008261826942F020028261324A1368116036
:100D5000121F13681160304A13681160121F136864
:100D600011602C4A4FF6FF71103211602A4A10327E
:100D70001160816941F00101816128494A684A6036
:100D80004A6842F000724A60016841F480310160B3
:100D900001688903FCD522490A6842F010020A6002
:100DA0000A6822F007020A600A6842F002020A603A
:100DB000416841F480314160416821F40031416073
:100DC000416821F470114160416841F4E0114160D3
:100DD000416841F480614160016841F080710160C7
:100DE00001688901FCD5416841F002014160416818
:100DF000C1F381010229FAD1016821F001010160EA
:100E000001688907FCD4704700100240002601C524
:100E10000400C7FF04080140041401400000014021
:100E2000002002400F48816941F0080181610E48AD
:100E3000016821F470210160016841F440310160D2
:100E40000A48016821F0FF010160016841F03301A7
:100E5000016005480830016841F4805101600120BB
:100E600000F0C2B900100240040C01400408014027
:100E700070B53948816941F004018161816941F0AF
:100E800008018161C16941F48041C1613348016851
:100E9000C1F3130101600168314A11430160314817
:100EA000016821F47F410160016841F45051016003
:100EB0002C4C0834206840F4006020602A4800254B
:100EC0000580018841F44F710180011D0D8001886A
:100ED00041F0400101803220FFF74CFD206820F4F2
:100EE000006020600120FFF745FD1F4808300188A1
:100EF0008907FCD51C4980220C310A8002889207A0
:100F0000FCD50D8002889207FCD50D80018809066A
:100F1000FCD40520FFF72EFD206840F4006020601F
:100F20001248016841F48061016010480C3001688A
:100F300041F4806101600D481430016841F4806122
:100F400001600B498015C1F800010A48016921F4CC
:100F50007041016170BD000000100240040C0140AE
:100F60000000B0B404080140003800400004014013
:100F700004E000E00000014010B5124CA16D21F02A
:100F80000101A165A16D6FF30E01A1650E492166F6
:100F90000E4A626640F2B342E265A26D43F29213DA
:100FA0001A43A26500220A804FEAF4410A8842F0FF
:100FB00001020A80FFF7E4FCA06D40F00100A0658B
:100FC00010BD0000000002403C0800401801002055
:100FD000FFF772FE42F210742046FFF7CBFCFFF7DA
:100FE00061FD2046FFF7C6FCFFF71CFF2046FFF718
:100FF000C1FC00F01BFA62B62046FFF7BBFC0A4AB0
:101000000A490120FFF7E8FC2046FFF7B3FCFFF791
:101010002FFF4FF47A70FFF7ADFC0020FFF7ACFF15
:10102000034800F087F8FEE70C3001400000002084
:101030001826000804490A899207FCD58881088986
:101040000006FCD4704700000030014030B51B485A
:1010500001888907FCD51A4A116821F400611160E2
:101060001649D023091D0B800388DB07FCD00388B9
:101070009B07FCD500230B800488E407FCD00C8878
:101080004FF6FF7505EA04240588AD07FCD50B80F3
:101090000388DB07FCD0098821430388DB07FCD0E9
:1010A000C8080C21B0FBF1F0A0F23F1040421168DB
:1010B00080B241F40061116030BD0000083800408A
:1010C0000C08014030B5194801888907FCD5184A39
:1010D000116821F40061116014499023091D0B80EF
:1010E0000388DB07FCD003889B07FCD500230B801B
:1010F0000488E407FCD00C884FF6FF7505EA042449
:101100000588AD07FCD50B800388DB07FCD0098878
:1011100021430388DB07FCD0C808EF21A1EB1010A6
:10112000116880B241F40061116030BD08380040A0
:101130000C08014010B504461548016841F480517F
:101140000160EB233722BE210A20FFF7D7F91148AF
:10115000016841F4807101600F4A002140F64400AB
:1011600013899B07FCD534F811301B0A938113892E
:101170009B07FCD514F811309381491C89B2814238
:10118000EED30348001F016841F48051016010BD97
:10119000140C014010080140003001402DE9F041DD
:1011A00006460F4600F074FF041E0D4618BF0120CE
:1011B000284320F00040C0F17F6000F1E040C00F04
:1011C0000ED0301C18BF0120384320F00040C0F181
:1011D0007F6000F1E040C00F04BF0120FFF716F868
:1011E00020462946BDE8F08110B50446FFF7F6F920
:1011F0008C49086840F4805008600120FFF7CEF960
:101200004FF4FA70FFF7B6FBCB20FFF7C7F9392090
:10121000FFF7D4F92C20FFF7D1F90020FFF7CEF922
:101220003420FFF7CBF90220FFF7C8F9CF20FFF7F2
:10123000B5F90020FFF7C2F9C120FFF7BFF9302050
:10124000FFF7BCF9E820FFF7A9F98520FFF7B6F909
:101250001020FFF7B3F97820FFF7B0F9EA20FFF785
:101260009DF90020FFF7AAF90020FFF7A7F9ED206C
:10127000FFF794F96420FFF7A1F90320FFF79EF927
:101280001220FFF79BF98120FFF798F9F720FFF76D
:1012900085F92020FFF792F9C020FFF77FF923207E
:1012A000FFF78CF9C120FFF779F91020FFF786F9D5
:1012B000C520FFF773F93E20FFF780F92820FFF7DC
:1012C0007DF9C720FFF76AF98620FFF777F92046F6
:1012D000FFF740F9544841880088491E8BB2401EF0
:1012E00082B200210846FFF709F93A20FFF756F9C4
:1012F0005520FFF763F9B120FFF750F90020FFF701
:101300005DF91820FFF75AF9B620FFF747F90820D2
:10131000FFF754F98220FFF751F92720FFF74EF924
:10132000F220FFF73BF90020FFF748F92620FFF7EE
:1013300035F90120FFF742F9E020FFF72FF90F20E0
:10134000FFF73CF93120FFF739F92B20FFF736F989
:101350000C20FFF733F90E20FFF730F90820FFF7D4
:101360002DF94E20FFF72AF9F120FFF727F9372052
:10137000FFF724F90720FFF721F91020FFF71EF9E6
:101380000320FFF71BF90E20FFF718F90920FFF7DC
:1013900015F90020FFF712F9E120FFF7FFF8002010
:1013A000FFF70CF90E20FFF709F91420FFF706F9F3
:1013B0000320FFF703F91120FFF700F90720FFF7DB
:1013C000FDF83120FFF7FAF8C120FFF7F7F84820C1
:1013D000FFF7F4F80820FFF7F1F80F20FFF7EEF819
:1013E0000C20FFF7EBF83120FFF7E8F83620FFF785
:1013F000E5F80F20FFF7E2F81120FFF7CFF840F2F1
:10140000DC50FFF7B7FA2920FFF7C8F80548001F9E
:10141000016841F480510160BDE810404FF47A70DA
:10142000FFF7A8BA140C0140080000202548816984
:1014300041F008018161816941F004018161C16964
:1014400041F00401C161416941F0010141611E485F
:10145000016821F00F010160016841F00B0101609A
:1014600019480830016821F4807101601749002093
:101470000880164A5921121D118014491431088020
:1014800012481C38018840F60902114301800F48B8
:101490000C38018841F060010180018841F00801A9
:1014A0000180001D018841F48071018007482838BF
:1014B000018841F0800101804FF0E021C013C1F8A4
:1014C0000001704700100240040C01402808004051
:1014D0002DE9FC5F0022D74C93461546C4E9102243
:1014E000C4E90E22C4E90C22E2602261C4E90A22A6
:1014F000DFF844A3C1F17808A1F17802C0F18C06AD
:101500008C2879D9A0F18C07782938D24FF00105C1
:10151000384600F02AFCC4E9100106460F46404652
:1015200000F023FC02460B46C4E90E0100F070FCFB
:101530008046894632463B461046194600F068FC14
:1015400042464B4600F0D0F9FFF728FEC4E90C01F3
:1015500002460B46D4E9100100F082FA00F092F93D
:10156000E06000F065FFFFF7CDF8002256465346D5
:1015700000F04EFCB14AB24B00F072FA81E07DD926
:101580004FF00205104600F0F0FBC4E910010646DA
:101590008846384600F0E9FB02460B46C4E90E01D6
:1015A00000F036FC07468946324643461046194647
:1015B00000F02EFC3A464B4600F096F9FFF7EEFDA0
:1015C000C4E90C0102460B46D4E9100100F048FAC8
:1015D00000F058F9E06000F02BFFFFF793F80022CD
:1015E0005646534600F014FC944A954B00F038FAE6
:1015F0000022944B41E0FFE755D278294FD94FF0B4
:101600000305104600F0B1FBC4E90E01814688468F
:10161000304600F0AAFBC4E9100106460F464A46D0
:1016200043461046194600F0F3FB80468946324691
:101630003B461046194600F0EBFB42464B4600F095
:1016400053F9FFF7ABFDC4E90C0102460B46D4E9A0
:10165000100100F005FA00F015F9E06000F0E8FE76
:10166000FFF750F800225646534600F0D1FB734A6C
:10167000734B00F0F5F90022334600E013E000F070
:1016800033F9714A714BC4E90A0100F0C1FB002231
:10169000334600F0E5F900F0F5F8206105E002D2EC
:1016A0004FF0040539E0042D37D0D4E90C010022B5
:1016B000674B00F071FB02D2207801286AD0032D1D
:1016C0007DD1D4E90C010022624B00F09FFC76D260
:1016D000D4E910010022604B00F098FC6FD2D4E9ED
:1016E000100100225D4B00F057FB68D2D4E90E01D7
:1016F00000225B4B00F08AFC61D2D4E90E0100228B
:10170000584B00F049FB5AD22078574D46F2A816A4
:10171000002866D0012877D07EE0304600F025FB17
:10172000C4E90E0181460F46404600F01EFBC4E9A5
:101730001001064688464A463B461046194600F0C8
:1017400067FB07468946324643461046194600F075
:101750005FFB4B463A4600F0C7F8FFF71FFDC4E9B0
:101760000C0102460B46D4E9100100F079F900F0B3
:1017700089F8E06000F05CFEFEF7C4FF00225646E8
:10178000534600F045FB2D4A2D4B00F069F900222D
:10179000364B72E73648A046A46AD0E90152D8F821
:1017A0002C1016460F46204600F0B2FA3149324658
:1017B0008E62C1E90805CDE90047294600E036E020
:1017C000FFF7D0F91B49891D4878020208781043B9
:1017D000020288781043C8F81400BDE8FC5FFFF7E8
:1017E000CBBB2548FFF7A6FC012020702348FFF75C
:1017F000C3FB3046FFF7BEF828684005FCD53046ED
:10180000FFF7B8F808E0FFE71D48FFF793FC84F8FE
:1018100000B00020FFF7B0FB3046FFF7ABF82868B8
:101820004005FCD53046BDE8FC5FFFF7A3B8BDE836
:10183000FC9F00001000002000806640112D4454E1
:10184000FB2109400080564040EAFF9EDB8F774035
:1018500000805B400000594000C05C4000E06040F8
:1018600000C0524000C057400808014000E07040EE
:101870000C260008EC000020A0360008F0F0F00074
:101880001826000821F00042A2F16052B2F5801F34
:1018900001F0004328BFD2F17F6C0BD95FEA001C36
:1018A00043EAC20242EB507018BF704728BF20F0D5
:1018B00001007047B2F5801FBCBF184670474FEA61
:1018C000410C1CF5001F02D2084600F022BE70B584
:1018D00000F048FB00000089FFF7F6BF4FF0004022
:1018E000A0F580007047000010B591EA030F48BFD3
:1018F00083F0004300F1BA84841A71EB030C05D223
:10190000121943EB0C03001B61EB0C01DFF824E11F
:101910004FEA1154A4EB135C1EEA430F18BF9EEA72
:10192000445F73D023EA0E03DCF1200E21EA045158
:1019300043F4801332D322FA0CFE10EB0E0023FA8C
:101940000CFE41EB0E01CCF1200E03FA0EFE10EB63
:101950000E0051F10001B1F5801FCCF1200E32D202
:1019600001EB045112FA0EF2BDE8104058BF704767
:10197000401C38BF5FEA420218BF7047002814BFFE
:1019800020F0010041F100014FEA410313F5001F6F
:1019900038BF7047A1F1C04100F032BB012A43EBD0
:1019A0000302ACF1200CDCF11F0E32BF4FF0000E31
:1019B00023FA0CF310EB030041EB0451B4EB115F7D
:1019C000D0D0A1EB045101F5801149085FEA300045
:1019D00001EB04510ED350F1000038BF12FA0EFE95
:1019E00008D1BDE81040C9E7401C38BF5FEA420299
:1019F000CAD1C3E7BDE810404FEA410313F5001F09
:101A000038BF7047A1F1C04100F0FABA9EEA445FC6
:101A100008D011EA5E0FBDE8104004BF01F000419C
:101A200000207047BDE8104070B500F09BFA00BF81
:101A300064FBBE3E0000E0FF02494FF0000000F0F2
:101A40006DBD00BF0000F87F491058BFC1F1404193
:101A50005B1058BFC3F140438B42EFF300807047E7
:101A60002DE9C04130B4DFF8A0C23CEA111418BF20
:101A70003CEA131400F0EC8081EA03051CEA11141F
:101A800044EAD57418BF1CEA131500F0C780A4EB14
:101A900005044FF0004545EAC12145EAC32341EA68
:101AA000505143EA525304F17F74994204F50034D3
:101AB0004FEAC0204FEAC22208BF904200F09C804B
:101AC0004FEA13650FF24016765D4FEA134506FBA9
:101AD00005F7C7F1807706FB07F74FEAD737A7FB73
:101AE00003687642C8F58038A7FB06CE38BFA8F158
:101AF000010807FB08E64FF0000EA6FB028CE6FB90
:101B000003CEDCF1000CCEF1004E38BFAEF1010E79
:101B1000A6FB0C584FF000074FF00005E6FB0E87C0
:101B2000A1FB08C6A0FB07CE16EB0E0645F100058B
:101B3000E1FB076515F1E04E7EBFA4F580345FEA56
:101B400046066D4116F1800745F100054FEA17275B
:101B50004FEA066647EA0567A6F1DE46B6F1805F02
:101B60004FEA15251FD9384624F0010C05EBC47146
:101B7000BCF1FE6F01EB0C1102D8F0BCBDE8008196
:101B800024425CBF01F5801E9EEAC47F02D4F0BCF3
:101B9000BDE80081244238D4F0BCA1F1C041BDE8C9
:101BA000004100F02DBA4FEAD22242EA43524FEAF6
:101BB000D323A7FB02864FEAD02040EA415007FB1F
:101BC00003661EEA0E0F4FEAD12105FB026658BFDD
:101BD000A6EB0056B6EB00564FEA520E4EEAC37E15
:101BE00018EB0E0E56EB530EBDD518EB02085E41F6
:101BF0007F1C55F10005B6E74FF480154FF0000744
:101C00004FF000064FF00008ADE7F0BC4FF00000C9
:101C100001F1C04101F00041BDE8008111EA0C1F53
:101C20000CEA131500D00CE013EA0C1F00F025801D
:101C30004FF00000F0BC81EA030101F00041BDE873
:101C40000081F0BCBDE8004181EA030100F0D8B991
:101C5000F0BCBDE8004170B500F084F9097EFC3E9F
:101C600000F007B881EA03014FF0000001F00041E5
:101C7000704781EA030100F0C3B9F0BCBDE8004140
:101C80004FF0000021497047FFFDFBF9F7F5F4F232
:101C9000F0EEEDEBE9E8E6E4E3E1E0DEDDDBDAD807
:101CA000D7D5D4D3D1D0CFCDCCCBCAC8C7C6C5C465
:101CB000C2C1C0BFBEBDBCBBBAB9B8B7B6B5B4B37C
:101CC000B2B1B0AFAEADACABAAA9A8A8A7A6A5A467
:101CD000A3A3A2A1A09F9F9E9D9C9C9B9A9999982B
:101CE0009797969595949393929191908F8F8E8ECE
:101CF0008D8C8C8B8B8A898988888787868585845B
:101D000084838382828181800000FF070000F87F46
:101D10004FEA1153A3F58063D3F11E03A8BFD3F19B
:101D2000200C08DB4FF0004242EAC12252EA505236
:101D300032FA03F0704709420BD4102BC4BF0020C5
:101D4000704703F5787CBCF1FF3F05D04FF0FF30C2
:101D500070474FF00000704770B500F003F900BF06
:101D60004992248000207047F0E710F0004248BFFD
:101D70004042B0FA80F310FA03F10AD0C3F11D0318
:101D800003F580634FEA415002EB035202EBD1218D
:101D900070474FF00000704751EA030C17D41CF550
:101DA000801F58BFBCF5801F00F10680994218BF04
:101DB000704708BF9042704707D711F5801F58BF82
:101DC00013F5801F19D499427047894270471CF55A
:101DD000801F08D5BCF5801FF7D58B4218BF704710
:101DE00008BF824270474FF4001C1CEB410F38BF04
:101DF0001CEB430F01D28B42704770B500F0B2F874
:101E0000922449004FF000514FF08053FFF71CBE61
:101E1000DFF848C170B51CEA111E1EBF1CEA13157D
:101E20009EEA0C0F95EA0C0F00F06F8081EA030424
:101E300023EA4C134EEAD47E21EA4C1141F480117E
:101E400043F48013AE44A1FB024CA0FB0365AEF14A
:101E50007F7E361955EB0C05A1FB034C4CF10003BA
:101E6000A0FB021C16EB0C06654153F1000309426E
:101E700018BF46F0010613F4007F0BD14FEA03317F
:101E80004FEA0530340341EA155140EA16506FF02D
:101E900003020AE04FEAC3214FEAC520F40241EAF7
:101EA000555140EA56506FF0020202EB2E4201EB10
:101EB000025585EACE710AD05FEA440C18BF24F0BF
:101EC000004450F1000041F1000120EAD47040F2DA
:101ED000FE7C624500D270BDA84214BF4FF0804422
:101EE0004FF04044002E08BF0024BEF1806FA8BF11
:101EF000A1F1C041BDE8704080F282804FF0000047
:101F000001F1C04101F0004170479EEA0C0F0CEA5C
:101F1000131518BF95EA0C0F06D04FF0000081EAA8
:101F2000030E0EF0004170BD00F01CF88900013E68
:101F300000F007B800F009B84FEA430C5FEA5C5CB8
:101F400008D081EA030100F05BB84FEA410C5FEA78
:101F50005C5CF6D14FF00000014970470000FF07BC
:101F60000000F87F0EF1020E2EF0030E5EF8046BF7
:101F7000364205D4012A43EB030515F5001F12D89C
:101F8000012841EB010C1CF5001F0CD80ED14FEAC3
:101F9000D17C15F5001F0CEB4C0C0CF1020C08BFAA
:101FA0004CEBD37C04E04FF0080C01E04FEAD37C0B
:101FB0000CEB4C0526FA05F606F00706B6F1040C04
:101FC00006D20EEB860CBDE870404CF0010C604769
:101FD000DFE80CF0090B02024FF000414FF0000067
:101FE000A1F5002170BD19461046012851EB0104EE
:101FF00018BFD4F5001484BF002001F0004170BD6B
:102000000808A0F500114FEA3101704753EA010CAE
:1020100017D41CF5801F58BFBCF5801F00F1068047
:102020008B4218BF704708BF8242704707D713F52D
:10203000801F58BF11F5801F19D48B4270479B42F7
:1020400070471CF5801F08D5BCF5801FF7D5994255
:1020500018BF704708BF904270474FF4001C1CEB3C
:10206000430F38BF1CEB410F01D2994270470FB4A8
:102070000CBC03BCFFF7C1BE91EA030F10B581F0A1
:1020800000413FF539AC83F0004300F0EFB80000A9
:102090002DE9F04101F5801CBCF5001FC0F2C380A2
:1020A0004FEA115C21EA0C510CF1FD0C41F4801156
:1020B0005FEA5C0C0CF5C07C01D3400049413DA4B3
:1020C000890241EA905187028E0E0A0CA45D04FB3E
:1020D00004F602FB06F6C6F14046A4FB0662F60DC6
:1020E00046EA422606FB06F4A4FB01235242C3F152
:1020F000404338BF5B1EA6FB02420024E6FB0324DC
:10210000D20B42EA4446A6FB0623A1FB02E2A3FB54
:1021100007E4A4184FF0000252F10002E3FB014271
:102120006442C2F1404E38BFAEF1010EA6FB04235B
:102130004FF00002E6FB0E32A2FB03464FF0000414
:10214000B61954F10004E2FB0264A1FB06E6A4FB0D
:1021500007E816EB08064FF0000858F10008E4FB0A
:1021600001687642C8F1405838BFA8F10108A2FBC7
:1021700006E4A3FB08E52D194FF0000454F1000418
:10218000E2FB0854A1FB05E6A7FB04E818EB0608F0
:102190004FF0000656F10006E1FB048618F1200519
:1021A00056F10006A809A8F11B08B10908F03F087C
:1021B000B8F10A0F40EA86601CD901EB0C51BDE86A
:1021C000F08100BFFCF5EEE8E2DDD8D3CFCBC7C38A
:1021D000C0BDB9B6B4B1AEACA9A7A5A3A19F9D9B44
:1021E0009A9896959392908F8D8C8B898887868507
:1021F00084838281A0FB006800FB01F208EB4208A7
:10220000B8EB872807D5341858EB0104D5D5401C06
:1022100051F10001D1E7341A78EB0104CDD4401E0E
:1022200071F10001C9E75FEA4C0C5FEA9C5C0DD1DB
:1022300005D34FF0000001F00041BDE8F081BDE89A
:10224000F04170B5FFF78EFE6DDBFFBEBDE8F041DB
:102250004FF00000004970470000F87F10B591EA88
:10226000030F48BF83F000433FF546AB841A71EB80
:10227000030C07D212198CF0004C43EB0C03001B2B
:1022800061EB0C01DFF8A4E14FEA1154A4EB135CFD
:102290001EEA430F18BF9EEA445F00F0B08023EAB5
:1022A0006E03524221EA0451C3EB6E0338BF5B1E3A
:1022B000DCF1200E25D322FA0CFE10EB0E0043FABF
:1022C0000CFE41EB0E01CCF1200E03FA0EFE10EBDA
:1022D0000E0051F10001CCF1200E29D412FA0EF2B9
:1022E00001EB0451BDE8104058BF7047401C1CBFB3
:1022F000B2F1004F704700280CBF491C20F00100CC
:10230000704712EB020E43EB030218BF4FF0010EB1
:102310004EEA4202ACF1200CDCF11E0E54D943FA15
:102320000CFE10EB0E0051F1FF31CCF11E0ED5D595
:102330000EF1010E12FA0EFE404141EB010101EBDC
:10234000445C5FEA5C5C10D910EBDE7001EB045179
:1023500038BFBEF1004FBDE8104018BF70470028DD
:102360000CBF491C20F00100704730D24FEAD42C3A
:1023700011F5001124F400641BD0B1FA81F20B3A7C
:10238000A41AA41ED2F12003914030FA03F319439A
:10239000904001EBCC71002C01EB0451BDE81040E2
:1023A000A8BF704701F1C0414FF0000001F00041AB
:1023B0007047B0FA80F310FA03F100D110BDE41AAF
:1023C000173C4805C90AE4E701EB045110BD491068
:1023D00001EB0451BDE810404FEA300002E04FF03D
:1023E000000170474A0008BF0042F8D0B2F5001F54
:1023F00028BF704701F000414FF0000070479EEA8F
:10240000445F07D011EA5E0FBDE8104004BF002111
:1024100000207047BDE8104070B5FFF7A3FD00BF76
:1024200040DFF63E83F00041104670470000E0FFB9
:1024300043004FEAD30C4FEA3C0C43401FBF400718
:102440000CF1605113F0FE4F70471CF0006F03D188
:1024500000200CF0004170470CF0004343EA50703C
:1024600010B540EACC0000F00EF800BF000000926A
:102470004FEA0001FFF7C4BD4FF000414FF00000EC
:10248000A1F5002170470EF1020E2EF0030E5EF84A
:10249000044B244204D44FEA4102B2F17F4F11D8D9
:1024A0004FEA4003B3F17F4F0CD80ED14FEAD07CF6
:1024B000B2F17F4F0CEB4C0C0CF1020C08BF4CEB53
:1024C000D17C04E04FF0080C01E04FEAD17C0CEB2A
:1024D0004C0324FA03F404F00704B4F1040C06D20C
:1024E0000EEB840CBDE810404CF0010C6047DFE8B7
:1024F0000CF0070802024FF00040A0F5800010BD6C
:102500000846420018BFD2F1807288BF00F0004038
:1025100010BDFF2141EAD050C00570470CF00F03F9
:10252000092B08BF082000F059800A2B0BD0082B7C
:1025300018BF704708BF1CF0400F0AD04FF00000D2
:102540004FF0000170471CF0400F18BF4FF00040E3
:1025500070471CF0100F08D020F0704300F07F424D
:1025600042EAD3014FEA4370704700F0604021F027
:102570007F4242EA000201F07F4040EA72707047F9
:102580004FF0FF0C4CF4E06C1CEA11531CBF9CEAAA
:10259000030C9445C2BFDA4201EB02517047002B95
:1025A0000DD0BCF1000F0FD0002A01F00041A4BFF4
:1025B00041F0E04141F07F614FF00000704701F0D1
:1025C00000414FF00000704750EA01334FF09B0C80
:1025D00018BF4CF0806C7FF42FAA70471CF4801F4A
:1025E00011D01CF4E02F03D06FEACC3149007047C2
:1025F0004FF04050EFF3008222F0704242EA0002B6
:1026000082F3008870474FF0000070470000000020
:1026100064000000640000000000000000000000F2
:1026200000000000000000000000000000000000AA
:102630000000000000000000000000000000A008F2
:10264000401921220133612A802A6019A008000064
:10265000000000000000000000000000000000007A
:10266000000000000000000000000000000000006A
:10267000000000000000000000000000000000005A
:10268000000000000000000000000000000000004A
:10269000000040008032813D612FE127E127E127E2
:1026A000E127E127E127E127E127A127A13DE12A51
:1026B00060080000000000000000000000000000B2
:1026C000000000000000000000000000000000000A
:1026D00000000000000000000000000000000000FA
:1026E00000000000000000000000A019C13CE1272C
:1026F000E127E127E127E127E127E127E127E1279A
:10270000E127E127E127E127E127E127E127813DD3
:10271000C0210000000000000000000000000000D8
:1027200000000000000000000000000000000000A9
:102730000000000000000000000000000000000099
:102740000000C010C145E127E127E127E127E1278B
:10275000E127E127E127E127E127E127E127E12739
:10276000E127E127E127E127E127E127E127813E72
:102770000011000000000000000000000000000048
:102780000000000000000000000000000000000049
:10279000000000000000000000000000A13CE12754
:1027A000E127E127E127E127E127E127E127E127E9
:1027B000E127E127E127E127E127E127E127E127D9
:1027C000E127E127E127E127E127E127812F413DAB
:1027D00000000000000000000000000000000000F9
:1027E00000000000000000000000000000000000E9
:1027F000000000002000A136E127E127E127E127C2
:10280000E127E127E127E127E127E127E127E12788
:10281000E127E127E127E127E127E127E127E12778
:10282000E127E127E127E127E127E12721376008B8
:102830000000000000000000000000000000000098
:102840000000000000000000000000000000600820
:10285000E127E127E127E127E127E127E127E12738
:10286000E127E127E127E127E127623700000000A7
:10287000E346E127E127E127E127E127E127E127F7
:10288000E127E127E127E127E127E12740190000BF
:102890000000000000000000000000000000000038
:1028A00000000000000000006008E127E127E127A8
:1028B000E127E127E127E127E127E127E127E127D8
:1028C000E127E127E127687E00000000AD9EE127B7
:1028D000E127E127E127E127E127E127E127E127B8
:1028E000E127E127E127E127612F601900000000BF
:1028F00000000000000000000000000000000000D8
:1029000000002000E127E127E127E127E127E12777
:10291000E127E127E127E127E127E127E127E12777
:10292000E127876E000000008A8EE127E127E1277A
:10293000E127E127E127E127E127E127E127E12757
:10294000E127E127E127A12F800800000000000017
:102950000000000000000000000000000000E13660
:10296000E127E127E127E127E127E127E127E12727
:10297000E127E127E127A22FA456E127E127677687
:10298000000000008A8EE127E127A4566237E12784
:10299000E127E127E127E127E127E127E127E127F7
:1029A000E127E127812F0000000000000000000067
:1029B0000000000000000000E13CE127E127E127E2
:1029C000E127E127E127E127E127E127E127C127E7
:1029D0008C96000000002321E127A55E0000000086
:1029E000687EE12753C700000000AE9EA22FE127BA
:1029F000E127E127E127E127E127E127E127E12797
:102A0000E127813D00000000000000000000000000
:102A100000008008E127E127E127E127E127E127FE
:102A2000E127E127E127E127A4560000000000008C
:102A300000000000E127A45600000000687EE127A6
:102A40008B6300000000000000008666E127E1279C
:102A5000E127E127E127E127E127E127E127C12756
:102A60006019000000000000000000000000613E4E
:102A7000E127E127E127E127E127E127E127E12716
:102A8000E12767760000000000000000F2B6223F58
:102A9000E1276776000000008A8EE1274237F0AE1A
:102AA00000000000000000008A86E127E127E127FE
:102AB000E127E127E127E127E127E127413700006E
:102AC00000000000000000004019E127E127E12795
:102AD000E127E127E127E127E127E127866E0000D2
:102AE000200000000000A456E127E127E127876EBF
:102AF000000000008A86E127E127E127C34E54C782
:102B00000000031900006986E127E127E127E1279A
:102B1000E127E127E127E127E1272022000000004B
:102B200000000000613DE127E127E127E127E127DF
:102B3000E127E127E127E346000020000000F1B68D
:102B4000E127E127E127E127E12767760000000080
:102B50008A8EE127E127E127E127E127CFAE0000B8
:102B600003190000C44EE127E127E127E127E1270F
:102B7000E127E127E127A136000000000000200046
:102B8000E127E127E127E127E127E127E127E12705
:102B9000E12723210000000013BFE127E127E127FF
:102BA000E127E127E127666E000000006A86E12741
:102BB000E127E127E127E127E127CFA60000000078
:102BC0000000E127E127E127E127E127E127E127CD
:102BD000E127E1278008000000008032E127E1279B
:102BE000E127E127E127E127E127E12767760000D8
:102BF00000000000E127E127E127E127E127E127A5
:102C0000E1276776000000008A8EE127E127E127AF
:102C1000E127E127E127E1270000000000008B9673
:102C2000E127E127E127E127E127E127E127E12764
:102C3000E13300000000C13DE127E127E127E12762
:102C4000E127E127E127E1278B630000000085668B
:102C5000E127E127E127E127E127E127E12767765F
:102C6000000000008A8EE127E127E127E127E12724
:102C7000E127E127A456000000000000E127E1273A
:102C8000E127E127E127E127E127E127E1360000FD
:102C90000000C127E127E127E127E127E127E1271C
:102CA000E127023F000000008A63E127E127E127D6
:102CB000E127E127E127E127E127876E00000000F7
:102CC0008A86E127E127E127E127E127E127E127BC
:102CD000E12775CF00000000A456E127E127E12796
:102CE000E127E127E127E127E1272000A008E127EC
:102CF000E127E127E127E127E127E127E1276986AD
:102D0000000000006986E127E127E127E127E127AC
:102D1000E127E127E1276776000000008A8EE1279E
:102D2000E127E127E127E127E127E127E127666E97
:102D300000000000AC9EE127E127E127E127E12721
:102D4000E127E127E12720114019E127E127E127C9
:102D5000E127E127E127E127E127CFAE00000000CE
:102D60000347E127E127E127E127E127E127E127E1
:102D7000E127866E000000008A86E127E127E1272F
:102D8000E127E127E127E127E127423700000000A2
:102D900054C7E127E127E127E127E127E127E127E0
:102DA000E127C0214122E127E127E127E127E127AF
:102DB000E127E127E12754C700000000E127E127D0
:102DC000E127E127E127E127E127E127E1276776EE
:102DD000000000008A8EE127E127E127E127E127B3
:102DE000E127E127E127E1278B6300008B63E127DF
:102DF000E127E127E127E127E127E127E127C02AB1
:102E0000C12AE127E127E127E127E127E127E1279F
:102E1000E12794BE0000B4BEE127E127E127E127C6
:102E2000E127E127E127E127E1276776000000009D
:102E30008A8EE127E127E127E127E127E127E12742
:102E4000E127E12795CF00002000A227E127E12715
:102E5000E127E127E127E127E127612A612AE1272C
:102E6000E127E127E127E127E127E127E12772AE0A
:102E70000000B5BEE127E127E127E127E127E127AF
:102E8000E127E127E1276876000000008B96E12723
:102E9000E127E127E127E127E127E127E127E127F2
:102EA000B6D700000000C227E127E127E127E1278C
:102EB000E127E127E1270033802AE127E127E12705
:102EC000E127E127E127E127E12732BF00000000E9
:102ED000622FE127E127E127E127E127E127E12729
:102EE000E127A22712BF34C74237E127E127E127B4
:102EF000E127E127E127E127E127E12700000000A2
:102F00008A63E127E127E127E127E127E127E1279C
:102F1000E12721226119E127E127E127E127E127C4
:102F2000E127E127E127AC9600000000A456E12745
:102F3000E127E127E127E127E127E127E127E12751
:102F4000E127E127E127E127E127E127E127E12741
:102F5000E127E127E127E34E0000000011B7E12758
:102F6000E127E127E127E127E127E127E127002207
:102F7000A008E127E127E127E127E127E127E12771
:102F8000E127856600000000CEA6E127E127E127C2
:102F9000E127E127E127E127E127E127E127E127F1
:102FA000E127E127E127E127E127E127E127E127E1
:102FB000E1278B9600000000697EE127E127E127E9
:102FC000E127E127E127E127E12760190000E12758
:102FD000E127E127E127E127E127E127E127E127B1
:102FE000000000000000A227E127E127E127E127F8
:102FF000E127E127E127E127E127E127E127E12791
:10300000E127E127E127E127E127E127E127000088
:10301000000000004237E127E127E127E127E1270F
:10302000E127E127E12740000000013EE127E127F9
:10303000E127E127E127E127E127E12711B7000098
:103040000000AD9EE127E127E127E127E127E12705
:10305000E127E127E127E127E127E127E127E12730
:10306000E127E127E127E1278A8E0000000095CFC4
:10307000E127E127E127E127E127E127E127E12710
:10308000213700000000E12AE127E127E127E127BD
:10309000E127E127E127E127423700000000000097
:1030A000A456E127E127E127E127E127E127E127EE
:1030B000E127E127E127E127E127E127E127E127D0
:1030C000E127E346000000000000A456E127E127C5
:1030D000E127E127E127E127E127E127613C000023
:1030E00000002000E127E127E127E127E127E12790
:1030F000E127E127E1278A8E000000000000E34677
:10310000E127E127E127E127E127E127E127E1277F
:10311000E127E127E127E127E127E1270347000035
:1031200000000000CFAEE127E127E127E127E127FA
:10313000E127E127E127E127A008000000000000C7
:10314000213EE127E127E127E127E127E127E127E8
:10315000E127E1272000000000000000855EE12754
:10316000E127E127E127E127E127E127E127E1271F
:10317000E127E127E127A45600000000000000003D
:10318000E127E127E127E127E127E127E127E127FF
:10319000E127013700000000000000008019E1274E
:1031A000E127E127E127E127E127E127E127E127DF
:1031B000E1272321000000000000AE9EE346E12746
:1031C000E127E127E127E127E127E127E12703477D
:1031D000AD9E00000000000000006237E127E127FB
:1031E000E127E127E127E127E127E127E127E03295
:1031F000000000000000000000002137E127E12767
:10320000E127E127E127E127E127E127E127E1277E
:1032100034C70000000000000000F1B66876A45634
:10322000223F223FC34E687611B700000000000025
:1032300000000000822FE127E127E127E127E127B5
:10324000E127E127E127E127A12700000000000096
:10325000000000000000C010A127E127E127E127BE
:10326000E127E127E127E127E127E127E127697E3F
:10327000000000000000000000000000000000004E
:103280000000000000000000000000008A86E12726
:10329000E127E127E127E127E127E127E127E127EE
:1032A000E127E127A1190000000000000000000054
:1032B00000000000A13DE127E127E127E127E12708
:1032C000E127E127E127E127E127E12762378D9612
:1032D00000000000000000000000000000000000EE
:1032E00000000000AE9E223FE127E127E127E12711
:1032F000E127E127E127E127E127E127E1276136FF
:1033000000000000000000000000000000000000BD
:103310000000612FE127E127E127E127E127E127ED
:10332000E127E127E127E127E127E127E127E34E34
:103330006776AC9ECEA6CFAEAC96687EC44EE12733
:10334000E127E127E127E127E127E127E127E1273D
:10335000E127E127E127E127E12720000000000025
:1033600000000000000000000000000000006008F5
:10337000C127E127E127E127E127E127E127E1272D
:10338000E127E127E127E127E127E127E127E127FD
:10339000E127E127E127E127E127E127E127E127ED
:1033A000E127E127E127E127E127E127E127E127DD
:1033B000E127812FE0100000000000000000000065
:1033C0000000000000000000000000002019812F14
:1033D000E127E127E127E127E127E127E127E127AD
:1033E000E127E127E127E127E127E127E127E1279D
:1033F000E127E127E127E127E127E127E127E1278D
:10340000E127E127E127E127E127E127E127202A3A
:1034100000000000000000000000000000000000AC
:10342000000000000000000000004019A12FE1276B
:10343000E127E127E127E127E127E127E127E1274C
:10344000E127E127E127E127E127E127E127E1273C
:10345000E127E127E127E127E127E127E127E1272C
:10346000E127E127E127E127202A000000000000F2
:10347000000000000000000000000000000000004C
:1034800000000000000000008008212FE127E12754
:10349000E127E127E127E127E127E127E127E127EC
:1034A000E127E127E127E127E127E127E127E127DC
:1034B000E127E127E127E127E127E127E127E127CC
:1034C000C1274019000000000000000000000000BB
:1034D00000000000000000000000000000000000EC
:1034E0000000000000000000213DC127E127E12786
:1034F000E127E127E127E127E127E127E127E1278C
:10350000E127E127E127E127E127E127E127E1277B
:10351000E127E127E127E127C127C13D2000000085
:10352000000000000000000000000000000000009B
:10353000000000000000000000000000000000008B
:103540000000000000008019C136E127E127E127D3
:10355000E127E127E127E127E127E127E127E1272B
:10356000E127E127E127E127E127E127E127E1271B
:10357000E1274137A1210000000000000000000009
:10358000000000000000000000000000000000003B
:10359000000000000000000000000000000000002B
:1035A000000000000000412A213EE127E127E12739
:1035B000E127E127E127E127E127E127E127E127CB
:1035C000E127E127E127E127E1278136E03200000A
:1035D00000000000000000000000000000000000EB
:1035E00000000000000000000000000000000000DB
:1035F00000000000000000000000000000000000CB
:10360000000000000000C010A133813EE127E12747
:10361000E127E127E127E127E127E127E127E1276A
:10362000C136213CA008000000000000000000009E
:10363000000000000000000000000000000000008A
:10364000000000000000000000000000000000007A
:10365000000000000000000000000000000000006A
:10366000000000000000000040000011A121A02A7D
:10367000812AE032212200222019400000000000AF
:10368000000000000000000000000000000000003A
:10369000000000000000000000000000000000002A
:1036A000000000000000000000000000000000001A
:1036B000000000000000000000000000000000000A
:1036C00000000000000000082010202000284128F1
:1036D0000020201000080000000000000000000092
:1036E00000000000000000000000000000000000DA
:1036F00000000000000000000000000000000000CA
:1037000000000000000000000000000000000000B9
:103710000000000000000000000000000030007009
:1037200000B800E800E800E800E000E800E000E899
:1037300000E000C800802028000000000000000019
:103740000000000000000000000000000000000079
:103750000000000000000000000000000000000069
:103760000000000000000000000000000000000059
:1037700000000010415800E800D800D800D800D060
:1037800000D000D000D000D000D000D000D000D8B1
:1037900000D000E800D800782018000000000000E9
:1037A0000000000000000000000000000000000019
:1037B0000000000000000000000000000000000009
:1037C000000000000000000000000008009000E879
:1037D00000E800D000D000D000D000D000D000D051
:1037E00000D000D000D000D000D000D000D000C861
:1037F00000D800D800E000A0000800000000000091
:1038000000000000000000000000000000000000B8
:1038100000000000000000000000000000000000A8
:1038200000000000205000F000D000D000D000D0F8
:1038300000D000D000D000D000D000D000D000C810
:1038400000D000D000D000D000D000D000D000D0F8
:1038500000D000D000F80068000000000000000068
:103860000000000000000000000000000000000058
:103870000000000000000000000000000000209890
:1038800000F000D000D000D000D000D000D000D098
:1038900000D000D000D000D081D0A2D000D000D085
:1038A00000D000D000D000D000D000D000D000D098
:1038B00000C800E800B800000000000000000000A0
:1038C00000000000000000000000000000000000F8
:1038D000000000000000000000E800E800D000D078
:1038E00000D000D000D000D000D000D000D000D058
:1038F00000D0C6D90000000089DA00C800D000D08E
:1039000000D000D000D000D000D000D000D000C83F
:1039100000D800F0001000000000000000000000CF
:103920000000000000000000000000000000000097
:10393000000000E800E000C800D000D000D000D0B7
:1039400000D000D000D000D000D000D000C8B1EC32
:1039500000000000B4F500C800D000D000D000D0B6
:1039600000D000D000D000D000D000D000D000D0D7
:1039700000F800100000000000000000000000003F
:1039800000000000000000000000000000E800E06F
:1039900000C800D000D000D000D000D000D000D0AF
:1039A00000D000C800C800C800C82FEC000000000C
:1039B00032ED00D000C800C800C800D000D000D050
:1039C00000D000D000D000D000D000D000D000F84F
:1039D00000000000000000000000000000000000E7
:1039E00000000000000020A000E800C800D000D0C7
:1039F00000D000D000D000D000D000C800C865D9E9
:103A00002CE324D900C84FEC0000000032F500C8B8
:103A1000C2D02CE3C7D900D000C800D000D000D05D
:103A200000D000D000D000D000D000D000D80000DE
:103A30000000000000000000000000000000000086
:103A4000205800F000D000D000D000D000D000D02E
:103A500000D000D000C844D195F50000000000005F
:103A600000C86CE300000000B1EC00C8442900006D
:103A70000000D6F585D900C800D000D000D000D015
:103A800000D000D000D000D000E02078000000007E
:103A900000000000000000000000000000F000D066
:103AA00000D000D000D000D000D000D000C800C8A6
:103AB0004CE30000000000000000000000D04CE3D8
:103AC0000000000070EC00C80000000000000000D2
:103AD0000000AEE300C800C800D000D000D000D085
:103AE00000D000D000C800F000100000000000006E
:103AF00000000000000000B000D000D000D000D0D6
:103B000000D000D000D000D000C84FE4000000007A
:103B10000000000099F628DA00C04FEC0000000019
:103B200033ED00C0C6D958F60000000000000000C8
:103B3000F2EC00C800C800D000D000D000D000D007
:103B400000D000D000D800000000000000000000FD
:103B5000001000E800D000D000D000D000D000D08D
:103B600000D000C82EE400000000000000000CE3BC
:103B700000D000C800C82FEC0000000012ED00D0FB
:103B800000C800C8CADA1AFF000000000000D1EC2B
:103B900000C800D000D000D000D000D000D000D0AD
:103BA00000E020200000000000000000616800E844
:103BB00000D000D000D000D000D000D000C888DAFB
:103BC00000000000000099F6A2D000C800C800D094
:103BD00000C84FEC0000000032F500C800D000D053
:103BE00000C840D037F6000000000000EAE200C83C
:103BF00000D000D000D000D000D000D000D8009875
:103C0000000000000000000000E800D000D000D05C
:103C100000D000D000D000D061D000000000000033
:103C2000D9F640D000C800D000D000D000C80EECBB
:103C30000000000012ED00C800D000D000D000C885
:103C400000D017F6000000000000E3D000C800D04C
:103C500000D000D000D000D000D000E80008000064
:103C60000000003000E000D000D000D000D000D034
:103C700000D000C86FEC000000000000A2D000C817
:103C800000D000D000D000D000C82FEC0000000011
:103C900012F500C800D000D000D000D000C820D05D
:103CA00000000000000073ED00C800D000D000D07C
:103CB00000D000D000D000E82040000000002070BC
:103CC00000E000D000D000D000D000D000C841D02B
:103CD000000000000000CDE300C800D000D000D0FC
:103CE00000D000D000C82FEC0000000032ED00C86A
:103CF00000D000D000D000D000D000C82BE30000DE
:103D000000000000C2D000D000D000D000D000D011
:103D100000D000D000A80000000020C800D800D0CB
:103D200000D000D000D000D000C848DA0000000069
:103D3000000020D000C800D000D000D000D000D0BB
:103D400000C82FE40000000012ED00C800D000D031
:103D500000D000D000D000D000D000000000000053
:103D60004BE300C800D000D000D000D000D000D875
:103D700000D80000000800E800D000D000D000D03B
:103D800000D000D000C8D1EC00000000D1EC00C889
:103D900000D000D000D000D000D000D000C82FEC60
:103DA0000000000032ED00C800D000D000D000D0EC
:103DB00000D000D000C80EEC00000000B4F500C830
:103DC00000D000D000D000D000D000D000E82010FB
:103DD000201000E800D000D000D000D000D000D0EB
:103DE00000D036F60000000069DA00C800D000D02C
:103DF00000D000D000D000D000C80EE400000000C9
:103E0000F2EC00D000D000D000D000D000D000D024
:103E100000C8E7D900000000200020D000C800D072
:103E200000D000D000D000D000E02018202000E812
:103E300000D000D000D000D000D000D020D00000B2
:103E40000000000024D900C800D000D000D000D06D
:103E500000D000D000C84FEC0000000032F500C8D0
:103E600000D000D000D000D000D000D000C8C3D80F
:103E7000000000000000C3D000D000D000D000D06F
:103E800000D000D000E00028202800E000D000D0C2
:103E900000D000D000D000D082D000000000000090
:103EA000C3D000C800D000D000D000D000D000D0D7
:103EB00000C84FEC0000000033ED00D000D000D06F
:103EC00000D000D000D000D000D041D000000000D1
:103ED000000045D900C800D000D000D000D000D0EC
:103EE00000E84120412000F000D000D000D000D0F8
:103EF00000D000C841D0000000000000C2D800D0AF
:103F000000D000D000D000D000D000D000C870ECAD
:103F10000000000073F500C800D000D000D000D031
:103F200000D000D000C882D000000000000044D1C2
:103F300000D000D000D000D000D000D000D8003099
:103F4000002000E000D000D000D000D000D000D091
:103F500000D0F9FE00000000A6D900C800D000D0B3
:103F600000D000D000D000D000C844D9B9F6FBFE84
:103F700007DA00C800D000D000D000D000D000D0B8
:103F800000C804D900000000000061D000C800D0C3
:103F900000D000D000D000D000F04120201000E878
:103FA00000D000D000D000D000D000D000D094EDE0
:103FB000000000002BE300C800D000D000D000D0EB
:103FC00000D000D000D000C800D000D000C800D081
:103FD00000D000D000D000D000D000D000C8CADA95
:103FE0000000000098F600D000D000D000D000D033
:103FF00000D000D000E00018000800E800D000D099
:1040000000D000D000D000D000C8ADE30000000018
:1040100015F600C800D000D000D000D000D000D0ED
:1040200000D000D000D000D000D000D000D000D010
:1040300000D000D000D000D000C893F500000000F0
:10404000B1EC00C800D000D000D000D000D000D02B
:1040500000E00010000000D800D800D000D000D050
:1040600000D000D000C824D900000000000065D9AD
:1040700000C800D000D000D000D000D000D000D0C8
:1040800000D000D000D000D000D000D000D000D0B0
:1040900000D000C8C3D8000000000000E7D900C865
:1040A00000D000D000D000D000D000D800D8000050
:1040B0000000008000D800D000D000D000D000D098
:1040C00000D000C897F600000000D5F500C800D069
:1040D00000D000D000D000D000D000D000D000D060
:1040E00000D000D000D000D000D000D000D000C858
:1040F00032ED00000000000020D000C800D000D049
:1041000000D000D000D000D000B80000000020286F
:1041100000F000C800D000D000D000D000D000C80F
:10412000E6D90000000000002BE300C000D000D062
:1041300000D000D000D000D000D000D000D000D0FF
:1041400000D000D000D000D000C889DA0000000004
:1041500000002BE300C800D000D000D000D000D079
:1041600000D000E0005000000000000000D800D89F
:1041700000D000D000D000D000D000D000C832ED78
:1041800000000000000089E200C000D000D000D094
:1041900000D000D000D000D000D000D000D000D09F
:1041A00000D000C868DA00000000000036F600C841
:1041B00000D000D000D000D000D000D000D000E06F
:1041C0002008000000000000008800D800D000D0C7
:1041D00000D000D000D000D000C840D000000000C7
:1041E000000000008DE300C800C800D000D000D05F
:1041F00000D000D000D000D000D000C800C82CE310
:10420000000000000000000082D000C800D000D0F4
:1042100000D000D000D000D000D800A800000000DE
:1042200000000000201000E800D000D000D000D036
:1042300000D000D000D000C803D145290000000004
:104240000000D6F589DA00C800C800C800C800C858
:1042500000C800C800C849E2B5F500000000000031
:104260000000C6D900C800D000D000D000D000D0D7
:1042700000D000D000E0003000000000000000008E
:10428000000000B800D000D000D000D000D000D096
:1042900000D000D000C8E2D0FAFE0000000000000C
:1042A000000098F670E40BE307DA28DACAE270E45B
:1042B00098F60000000000000000000085D100C852
:1042C00000D000D000D000D000D000D000D000D06E
:1042D00000E80000000000000000000000000008EE
:1042E00000F800C800D000D000D000D000D000D02E
:1042F00000D000C820C891EC0000000000000000C1
:1043000000000000000000000000000000000000AD
:104310000000000013ED81D000C800D000D000D014
:1043200000D000D000D000D000D000F02018000055
:10433000000000000000000000000000207800E8FD
:1043400000C800D000D000D000D000D000D000D0F5
:1043500000C800C8C6D995F50000000000000000A4
:10436000000000000000000000000000D6F528DA80
:1043700000C800D000D000D000D000D000D000D0C5
:1043800000D000C800F020880000000000000000FD
:104390000000000000000000000000C800D800D0AD
:1043A00000D000D000D000D000D000D000D000D08D
:1043B00000C800C8E4D8CADA50ECB5F516F657F6CE
:1043C000B5ED70ECEBE204D900C800C800D000D015
:1043D00000D000D000D000D000D000D000D000D855
:1043E00020D80000000000000000000000000000D5
:1043F000000000000000000000F000D000D000D05D
:1044000000D000D000D000D000D000D000D000D02C
:1044100000C800C800C800C800D000C800D000C84C
:1044200000C800D000D000D000D000D000D000D014
:1044300000D000D000D000D000D000F8000800006C
:10444000000000000000000000000000000000006C
:1044500000000000001000F800D000D000D000D014
:1044600000D000D000D000D000D000D000D000D0CC
:1044700000D000D000D000D000D000D000D000D0BC
:1044800000D000D000D000D000D000D000D000D0AC
:1044900000D000D000E00028000000000000000074
:1044A000000000000000000000000000000000000C
:1044B0000000201000F800D000D000D000D000D0C4
:1044C00000D000D000D000D000D000D000D000D06C
:1044D00000D000D000D000D000D000D000D000D05C
:1044E00000D000D000D000D000D000C800D800F02C
:1044F0000028000000000000000000000000000094
:1045000000000000000000000000000000000000AB
:10451000000800C800E000C800D000D000D000D0E3
:1045200000D000D000D000D000D000D000D000D00B
:1045300000D000D000D000D000D000D000D000D0FB
:1045400000D000D000D000E800D000100000000033
:10455000000000000000000000000000000000005B
:10456000000000000000000000000000000000004B
:10457000006800F000D000D000D000D000D000D003
:1045800000D000D000D000D000D000D000D000D0AB
:1045900000D000D000D000D000D000D000D000D09B
:1045A00000F040700000000000000000000000006B
:1045B00000000000000000000000000000000000FB
:1045C00000000000000000000000000000000010DB
:1045D00000C000E000D800D000D000D000D000D053
:1045E00000D000D000D000D000D000D000D000D04B
:1045F00000D000D000D000D800E000D0201800008B
:1046000000000000000000000000000000000000AA
:10461000000000000000000000000000000000009A
:10462000000000000000000000000000000020204A
:10463000008800E800E800D000D800D000D000D00A
:1046400000D000D000D000D000D000D000D000E0DA
:1046500000E00098003000000000000000000000B2
:10466000000000000000000000000000000000004A
:10467000000000000000000000000000000000003A
:104680000000000000000000000000000000000822
:10469000203800A000D800E800E000E000E800D8E2
:1046A00000E800E000E000E000A80048200800006A
:1046B00000000000000000000000000000000000FA
:1046C00000000000000000000000000000000000EA
:1046D00000000000000000000000000000000000DA
:1046E00000000000000000000000000000000000CA
:1046F000000000102018002840280030402000183A
:104700000010000000000000000000000000000099
:104710000000000000000000000000000000000099
:104720000000000000000000555555555555C53F87
:104730007D6FEB0312D6D4BF5544880E55C1C93FD7
:104740003B8F68B52882A4BF88B20175E0EF493F6E
:1047500009F7FD0DE13D023F4B2D8A1C273A03C0AE
:10476000C88A599CE52A004059018D1B6C06E6BF9A
:1047700082922EB1C5B8B33F9847000800000020D0
:104780006C0000005C010008044800086C00002078
:10479000C40B0000780100080000000000000000C9
:1047A0004001F000000000000000000000000000D8
:1047B000000000000454FD3D000000000000000067
:1047C00000000000000000000000000000000000E9
:1047D00000000000000000000000000000000000D9
:1047E00000000000000000000000000000000000C9
:1047F00000000000000000000000000000000000B9
:0448000000000000B4
:04000005080001BD31
:00000001FF
